{
  "contractName": "Wiki",
  "abi": [
    {
      "constant": true,
      "inputs": [
        {
          "name": "",
          "type": "address"
        },
        {
          "name": "",
          "type": "uint256"
        }
      ],
      "name": "authorArticles",
      "outputs": [
        {
          "name": "",
          "type": "uint256"
        }
      ],
      "payable": false,
      "stateMutability": "view",
      "type": "function"
    },
    {
      "constant": true,
      "inputs": [
        {
          "name": "",
          "type": "bytes32"
        }
      ],
      "name": "titleToId",
      "outputs": [
        {
          "name": "",
          "type": "uint256"
        }
      ],
      "payable": false,
      "stateMutability": "view",
      "type": "function"
    },
    {
      "constant": true,
      "inputs": [],
      "name": "articleCount",
      "outputs": [
        {
          "name": "",
          "type": "uint256"
        }
      ],
      "payable": false,
      "stateMutability": "view",
      "type": "function"
    },
    {
      "constant": true,
      "inputs": [
        {
          "name": "",
          "type": "uint256"
        }
      ],
      "name": "articles",
      "outputs": [
        {
          "name": "title",
          "type": "string"
        },
        {
          "name": "contentHash",
          "type": "string"
        },
        {
          "name": "author",
          "type": "address"
        },
        {
          "name": "timestamp",
          "type": "uint256"
        },
        {
          "name": "version",
          "type": "uint256"
        },
        {
          "name": "isDeleted",
          "type": "bool"
        }
      ],
      "payable": false,
      "stateMutability": "view",
      "type": "function"
    },
    {
      "anonymous": false,
      "inputs": [
        {
          "indexed": true,
          "name": "id",
          "type": "uint256"
        },
        {
          "indexed": false,
          "name": "title",
          "type": "string"
        },
        {
          "indexed": false,
          "name": "contentHash",
          "type": "string"
        },
        {
          "indexed": true,
          "name": "author",
          "type": "address"
        },
        {
          "indexed": false,
          "name": "timestamp",
          "type": "uint256"
        },
        {
          "indexed": false,
          "name": "version",
          "type": "uint256"
        }
      ],
      "name": "ArticleAdded",
      "type": "event"
    },
    {
      "anonymous": false,
      "inputs": [
        {
          "indexed": true,
          "name": "id",
          "type": "uint256"
        },
        {
          "indexed": false,
          "name": "title",
          "type": "string"
        },
        {
          "indexed": false,
          "name": "contentHash",
          "type": "string"
        },
        {
          "indexed": true,
          "name": "editor",
          "type": "address"
        },
        {
          "indexed": false,
          "name": "timestamp",
          "type": "uint256"
        },
        {
          "indexed": false,
          "name": "version",
          "type": "uint256"
        }
      ],
      "name": "ArticleUpdated",
      "type": "event"
    },
    {
      "anonymous": false,
      "inputs": [
        {
          "indexed": true,
          "name": "id",
          "type": "uint256"
        },
        {
          "indexed": true,
          "name": "deleter",
          "type": "address"
        },
        {
          "indexed": false,
          "name": "timestamp",
          "type": "uint256"
        }
      ],
      "name": "ArticleDeleted",
      "type": "event"
    },
    {
      "constant": false,
      "inputs": [
        {
          "name": "_title",
          "type": "string"
        },
        {
          "name": "_contentHash",
          "type": "string"
        }
      ],
      "name": "addArticle",
      "outputs": [],
      "payable": false,
      "stateMutability": "nonpayable",
      "type": "function"
    },
    {
      "constant": false,
      "inputs": [
        {
          "name": "_id",
          "type": "uint256"
        },
        {
          "name": "_newContentHash",
          "type": "string"
        }
      ],
      "name": "updateArticle",
      "outputs": [],
      "payable": false,
      "stateMutability": "nonpayable",
      "type": "function"
    },
    {
      "constant": false,
      "inputs": [
        {
          "name": "_id",
          "type": "uint256"
        }
      ],
      "name": "deleteArticle",
      "outputs": [],
      "payable": false,
      "stateMutability": "nonpayable",
      "type": "function"
    },
    {
      "constant": true,
      "inputs": [
        {
          "name": "_id",
          "type": "uint256"
        }
      ],
      "name": "getArticle",
      "outputs": [
        {
          "name": "",
          "type": "string"
        },
        {
          "name": "",
          "type": "string"
        },
        {
          "name": "",
          "type": "address"
        },
        {
          "name": "",
          "type": "uint256"
        },
        {
          "name": "",
          "type": "uint256"
        },
        {
          "name": "",
          "type": "bool"
        }
      ],
      "payable": false,
      "stateMutability": "view",
      "type": "function"
    },
    {
      "constant": true,
      "inputs": [
        {
          "name": "_title",
          "type": "string"
        }
      ],
      "name": "getArticleByTitle",
      "outputs": [
        {
          "name": "",
          "type": "uint256"
        },
        {
          "name": "",
          "type": "string"
        },
        {
          "name": "",
          "type": "string"
        },
        {
          "name": "",
          "type": "address"
        },
        {
          "name": "",
          "type": "uint256"
        },
        {
          "name": "",
          "type": "uint256"
        },
        {
          "name": "",
          "type": "bool"
        }
      ],
      "payable": false,
      "stateMutability": "view",
      "type": "function"
    },
    {
      "constant": true,
      "inputs": [
        {
          "name": "_author",
          "type": "address"
        }
      ],
      "name": "getAuthorArticles",
      "outputs": [
        {
          "name": "",
          "type": "uint256[]"
        }
      ],
      "payable": false,
      "stateMutability": "view",
      "type": "function"
    },
    {
      "constant": true,
      "inputs": [],
      "name": "getArticlesCount",
      "outputs": [
        {
          "name": "",
          "type": "uint256"
        }
      ],
      "payable": false,
      "stateMutability": "view",
      "type": "function"
    }
  ],
  "bytecode": "0x608060405234801561001057600080fd5b50611ea3806100206000396000f3fe6080604052600436106100a9576000357c010000000000000000000000000000000000000000000000000000000090048063101a3cc4146100ae57806322364e461461011d578063414e28b01461016c578063498de8b31461019757806351f71104146101d25780636ec67ec9146101fd5780638120abed1461035c57806382a950db1461042e578063bd85d867146104d4578063e952658414610640578063edcfafe614610840575b600080fd5b3480156100ba57600080fd5b50610107600480360360408110156100d157600080fd5b81019080803573ffffffffffffffffffffffffffffffffffffffff169060200190929190803590602001909291905050506109ac565b6040518082815260200191505060405180910390f35b34801561012957600080fd5b506101566004803603602081101561014057600080fd5b81019080803590602001909291905050506109dc565b6040518082815260200191505060405180910390f35b34801561017857600080fd5b506101816109f4565b6040518082815260200191505060405180910390f35b3480156101a357600080fd5b506101d0600480360360208110156101ba57600080fd5b81019080803590602001909291905050506109fa565b005b3480156101de57600080fd5b506101e7610d02565b6040518082815260200191505060405180910390f35b34801561020957600080fd5b5061035a6004803603604081101561022057600080fd5b810190808035906020019064010000000081111561023d57600080fd5b82018360208201111561024f57600080fd5b8035906020019184600183028401116401000000008311171561027157600080fd5b91908080601f016020809104026020016040519081016040528093929190818152602001838380828437600081840152601f19601f820116905080830192505050505050509192919290803590602001906401000000008111156102d457600080fd5b8201836020820111156102e657600080fd5b8035906020019184600183028401116401000000008311171561030857600080fd5b91908080601f016020809104026020016040519081016040528093929190818152602001838380828437600081840152601f19601f820116905080830192505050505050509192919290505050610d0c565b005b34801561036857600080fd5b5061042c6004803603604081101561037f57600080fd5b8101908080359060200190929190803590602001906401000000008111156103a657600080fd5b8201836020820111156103b857600080fd5b803590602001918460018302840111640100000000831117156103da57600080fd5b91908080601f016020809104026020016040519081016040528093929190818152602001838380828437600081840152601f19601f82011690508083019250505050505050919291929050505061119f565b005b34801561043a57600080fd5b5061047d6004803603602081101561045157600080fd5b81019080803573ffffffffffffffffffffffffffffffffffffffff16906020019092919050505061153f565b6040518080602001828103825283818151815260200191508051906020019060200280838360005b838110156104c05780820151818401526020810190506104a5565b505050509050019250505060405180910390f35b3480156104e057600080fd5b5061050d600480360360208110156104f757600080fd5b81019080803590602001909291905050506115d6565b6040518080602001806020018773ffffffffffffffffffffffffffffffffffffffff1673ffffffffffffffffffffffffffffffffffffffff16815260200186815260200185815260200184151515158152602001838103835289818151815260200191508051906020019080838360005b8381101561059957808201518184015260208101905061057e565b50505050905090810190601f1680156105c65780820380516001836020036101000a031916815260200191505b50838103825288818151815260200191508051906020019080838360005b838110156105ff5780820151818401526020810190506105e4565b50505050905090810190601f16801561062c5780820380516001836020036101000a031916815260200191505b509850505050505050505060405180910390f35b34801561064c57600080fd5b506107066004803603602081101561066357600080fd5b810190808035906020019064010000000081111561068057600080fd5b82018360208201111561069257600080fd5b803590602001918460018302840111640100000000831117156106b457600080fd5b91908080601f016020809104026020016040519081016040528093929190818152602001838380828437600081840152601f19601f820116905080830192505050505050509192919290505050611890565b6040518088815260200180602001806020018773ffffffffffffffffffffffffffffffffffffffff1673ffffffffffffffffffffffffffffffffffffffff16815260200186815260200185815260200184151515158152602001838103835289818151815260200191508051906020019080838360005b8381101561079857808201518184015260208101905061077d565b50505050905090810190601f1680156107c55780820380516001836020036101000a031916815260200191505b50838103825288818151815260200191508051906020019080838360005b838110156107fe5780820151818401526020810190506107e3565b50505050905090810190601f16801561082b5780820380516001836020036101000a031916815260200191505b50995050505050505050505060405180910390f35b34801561084c57600080fd5b506108796004803603602081101561086357600080fd5b8101908080359060200190929190505050611b6a565b6040518080602001806020018773ffffffffffffffffffffffffffffffffffffffff1673ffffffffffffffffffffffffffffffffffffffff16815260200186815260200185815260200184151515158152602001838103835289818151815260200191508051906020019080838360005b838110156109055780820151818401526020810190506108ea565b50505050905090810190601f1680156109325780820380516001836020036101000a031916815260200191505b50838103825288818151815260200191508051906020019080838360005b8381101561096b578082015181840152602081019050610950565b50505050905090810190601f1680156109985780820380516001836020036101000a031916815260200191505b509850505050505050505060405180910390f35b6003602052816000526040600020818154811015156109c757fe5b90600052602060002001600091509150505481565b60026020528060005260406000206000915090505481565b60015481565b600081118015610a0c57506001548111155b1515610a80576040517f08c379a00000000000000000000000000000000000000000000000000000000081526004018080602001828103825260128152602001807f496e76616c69642061727469636c65204944000000000000000000000000000081525060200191505060405180910390fd5b600080600083815260200190815260200160002090508060050160009054906101000a900460ff16151515610b1d576040517f08c379a00000000000000000000000000000000000000000000000000000000081526004018080602001828103825260208152602001807f41727469636c652068617320616c7265616479206265656e2064656c6574656481525060200191505060405180910390fd5b8060020160009054906101000a900473ffffffffffffffffffffffffffffffffffffffff1673ffffffffffffffffffffffffffffffffffffffff163373ffffffffffffffffffffffffffffffffffffffff16141515610c0a576040517f08c379a00000000000000000000000000000000000000000000000000000000081526004018080602001828103825260268152602001807f4f6e6c792074686520617574686f722063616e2064656c65746520746865206181526020017f727469636c65000000000000000000000000000000000000000000000000000081525060400191505060405180910390fd5b60018160050160006101000a81548160ff0219169083151502179055506000816000016040518082805460018160011615610100020316600290048015610c885780601f10610c66576101008083540402835291820191610c88565b820191906000526020600020905b815481529060010190602001808311610c74575b50509150506040518091039020905060026000828152602001908152602001600020600090553373ffffffffffffffffffffffffffffffffffffffff16837f280d9b973e527e00218a48a3c0eaeaf0cc8d02000d56e521f6359b36a0ddb386426040518082815260200191505060405180910390a3505050565b6000600154905090565b60008251111515610d85576040517f08c379a00000000000000000000000000000000000000000000000000000000081526004018080602001828103825260158152602001807f5469746c652063616e6e6f7420626520656d707479000000000000000000000081525060200191505060405180910390fd5b60008151111515610dfe576040517f08c379a000000000000000000000000000000000000000000000000000000000815260040180806020018281038252601c8152602001807f436f6e74656e7420686173682063616e6e6f7420626520656d7074790000000081525060200191505060405180910390fd5b60008280519060200120905060006002600083815260200190815260200160002054141515610ebb576040517f08c379a00000000000000000000000000000000000000000000000000000000081526004018080602001828103825260268152602001807f41727469636c6520776974682074686973207469746c6520616c72656164792081526020017f657869737473000000000000000000000000000000000000000000000000000081525060400191505060405180910390fd5b60016000815480929190600101919050555060c0604051908101604052808481526020018381526020013373ffffffffffffffffffffffffffffffffffffffff168152602001428152602001600181526020016000151581525060008060015481526020019081526020016000206000820151816000019080519060200190610f45929190611d03565b506020820151816001019080519060200190610f62929190611d03565b5060408201518160020160006101000a81548173ffffffffffffffffffffffffffffffffffffffff021916908373ffffffffffffffffffffffffffffffffffffffff160217905550606082015181600301556080820151816004015560a08201518160050160006101000a81548160ff0219169083151502179055509050506001546002600083815260200190815260200160002081905550600360003373ffffffffffffffffffffffffffffffffffffffff1673ffffffffffffffffffffffffffffffffffffffff16815260200190815260200160002060015490806001815401808255809150509060018203906000526020600020016000909192909190915055503373ffffffffffffffffffffffffffffffffffffffff166001547f0e2c1996067cefbb28cf7f4f8ca8648a2da58d3bef481416a77f19be62362c548585426001604051808060200180602001858152602001848152602001838103835287818151815260200191508051906020019080838360005b838110156110f65780820151818401526020810190506110db565b50505050905090810190601f1680156111235780820380516001836020036101000a031916815260200191505b50838103825286818151815260200191508051906020019080838360005b8381101561115c578082015181840152602081019050611141565b50505050905090810190601f1680156111895780820380516001836020036101000a031916815260200191505b50965050505050505060405180910390a3505050565b6000821180156111b157506001548211155b1515611225576040517f08c379a00000000000000000000000000000000000000000000000000000000081526004018080602001828103825260128152602001807f496e76616c69642061727469636c65204944000000000000000000000000000081525060200191505060405180910390fd5b600080600084815260200190815260200160002090508060050160009054906101000a900460ff161515156112c2576040517f08c379a00000000000000000000000000000000000000000000000000000000081526004018080602001828103825260188152602001807f41727469636c6520686173206265656e2064656c65746564000000000000000081525060200191505060405180910390fd5b8060020160009054906101000a900473ffffffffffffffffffffffffffffffffffffffff1673ffffffffffffffffffffffffffffffffffffffff163373ffffffffffffffffffffffffffffffffffffffff161415156113af576040517f08c379a00000000000000000000000000000000000000000000000000000000081526004018080602001828103825260268152602001807f4f6e6c792074686520617574686f722063616e2075706461746520746865206181526020017f727469636c65000000000000000000000000000000000000000000000000000081525060400191505060405180910390fd5b818160010190805190602001906113c7929190611d83565b5042816003018190555080600401600081548092919060010191905055503373ffffffffffffffffffffffffffffffffffffffff16837fb8c3e01edc0db58e281e49a803a0d0b3c9461c10c5284cf84d5cfe40f45a5ad283600001854286600401546040518080602001806020018581526020018481526020018381038352878181546001816001161561010002031660029004815260200191508054600181600116156101000203166002900480156114c25780601f10611497576101008083540402835291602001916114c2565b820191906000526020600020905b8154815290600101906020018083116114a557829003601f168201915b5050838103825286818151815260200191508051906020019080838360005b838110156114fc5780820151818401526020810190506114e1565b50505050905090810190601f1680156115295780820380516001836020036101000a031916815260200191505b50965050505050505060405180910390a3505050565b6060600360008373ffffffffffffffffffffffffffffffffffffffff1673ffffffffffffffffffffffffffffffffffffffff1681526020019081526020016000208054806020026020016040519081016040528092919081815260200182805480156115ca57602002820191906000526020600020905b8154815260200190600101908083116115b6575b50505050509050919050565b6060806000806000806000871180156115f157506001548711155b1515611665576040517f08c379a00000000000000000000000000000000000000000000000000000000081526004018080602001828103825260128152602001807f496e76616c69642061727469636c65204944000000000000000000000000000081525060200191505060405180910390fd5b61166d611e03565b60008089815260200190815260200160002060c06040519081016040529081600082018054600181600116156101000203166002900480601f0160208091040260200160405190810160405280929190818152602001828054600181600116156101000203166002900480156117245780601f106116f957610100808354040283529160200191611724565b820191906000526020600020905b81548152906001019060200180831161170757829003601f168201915b50505050508152602001600182018054600181600116156101000203166002900480601f0160208091040260200160405190810160405280929190818152602001828054600181600116156101000203166002900480156117c65780601f1061179b576101008083540402835291602001916117c6565b820191906000526020600020905b8154815290600101906020018083116117a957829003601f168201915b505050505081526020016002820160009054906101000a900473ffffffffffffffffffffffffffffffffffffffff1673ffffffffffffffffffffffffffffffffffffffff1673ffffffffffffffffffffffffffffffffffffffff16815260200160038201548152602001600482015481526020016005820160009054906101000a900460ff1615151515815250509050806000015181602001518260400151836060015184608001518560a001518595508494509650965096509650965096505091939550919395565b600060608060008060008060008880519060200120905060006002600083815260200190815260200160002054905060008114151515611938576040517f08c379a00000000000000000000000000000000000000000000000000000000081526004018080602001828103825260118152602001807f41727469636c65206e6f7420666f756e6400000000000000000000000000000081525060200191505060405180910390fd5b611940611e03565b60008083815260200190815260200160002060c06040519081016040529081600082018054600181600116156101000203166002900480601f0160208091040260200160405190810160405280929190818152602001828054600181600116156101000203166002900480156119f75780601f106119cc576101008083540402835291602001916119f7565b820191906000526020600020905b8154815290600101906020018083116119da57829003601f168201915b50505050508152602001600182018054600181600116156101000203166002900480601f016020809104026020016040519081016040528092919081815260200182805460018160011615610100020316600290048015611a995780601f10611a6e57610100808354040283529160200191611a99565b820191906000526020600020905b815481529060010190602001808311611a7c57829003601f168201915b505050505081526020016002820160009054906101000a900473ffffffffffffffffffffffffffffffffffffffff1673ffffffffffffffffffffffffffffffffffffffff1673ffffffffffffffffffffffffffffffffffffffff16815260200160038201548152602001600482015481526020016005820160009054906101000a900460ff161515151581525050905081816000015182602001518360400151846060015185608001518660a001518595508494509950995099509950995099509950505050919395979092949650565b6000602052806000526040600020600091509050806000018054600181600116156101000203166002900480601f016020809104026020016040519081016040528092919081815260200182805460018160011615610100020316600290048015611c165780601f10611beb57610100808354040283529160200191611c16565b820191906000526020600020905b815481529060010190602001808311611bf957829003601f168201915b505050505090806001018054600181600116156101000203166002900480601f016020809104026020016040519081016040528092919081815260200182805460018160011615610100020316600290048015611cb45780601f10611c8957610100808354040283529160200191611cb4565b820191906000526020600020905b815481529060010190602001808311611c9757829003601f168201915b5050505050908060020160009054906101000a900473ffffffffffffffffffffffffffffffffffffffff16908060030154908060040154908060050160009054906101000a900460ff16905086565b828054600181600116156101000203166002900490600052602060002090601f016020900481019282601f10611d4457805160ff1916838001178555611d72565b82800160010185558215611d72579182015b82811115611d71578251825591602001919060010190611d56565b5b509050611d7f9190611e52565b5090565b828054600181600116156101000203166002900490600052602060002090601f016020900481019282601f10611dc457805160ff1916838001178555611df2565b82800160010185558215611df2579182015b82811115611df1578251825591602001919060010190611dd6565b5b509050611dff9190611e52565b5090565b60c0604051908101604052806060815260200160608152602001600073ffffffffffffffffffffffffffffffffffffffff16815260200160008152602001600081526020016000151581525090565b611e7491905b80821115611e70576000816000905550600101611e58565b5090565b9056fea165627a7a72305820da45af1a555fe3f4f5e633137e68617b20061ae31cdb261e883d89eaeb6ba4760029",
  "source": "// SPDX-License-Identifier: MIT\r\npragma solidity >=0.4.22 <0.9.0;\r\n\r\ncontract Wiki {\r\n    struct Article {\r\n        string title;\r\n        string contentHash; // IPFS hash of the article content\r\n        address author;\r\n        uint256 timestamp;\r\n        uint256 version;\r\n        bool isDeleted;\r\n    }\r\n\r\n    mapping(uint256 => Article) public articles;\r\n    uint256 public articleCount;\r\n    mapping(bytes32 => uint256) public titleToId;\r\n    mapping(address => uint256[]) public authorArticles;\r\n\r\n    event ArticleAdded(uint256 indexed id, string title, string contentHash, address indexed author, uint256 timestamp, uint256 version);\r\n    event ArticleUpdated(uint256 indexed id, string title, string contentHash, address indexed editor, uint256 timestamp, uint256 version);\r\n    event ArticleDeleted(uint256 indexed id, address indexed deleter, uint256 timestamp);\r\n\r\n    function addArticle(string memory _title, string memory _contentHash) public {\r\n        require(bytes(_title).length > 0, \"Title cannot be empty\");\r\n        require(bytes(_contentHash).length > 0, \"Content hash cannot be empty\");\r\n        bytes32 titleHash = keccak256(bytes(_title));\r\n        require(titleToId[titleHash] == 0, \"Article with this title already exists\");\r\n\r\n        articleCount++;\r\n        articles[articleCount] = Article({\r\n            title: _title,\r\n            contentHash: _contentHash,\r\n            author: msg.sender,\r\n            timestamp: block.timestamp,\r\n            version: 1,\r\n            isDeleted: false\r\n        });\r\n\r\n        titleToId[titleHash] = articleCount;\r\n        authorArticles[msg.sender].push(articleCount);\r\n\r\n        emit ArticleAdded(articleCount, _title, _contentHash, msg.sender, block.timestamp, 1);\r\n    }\r\n\r\n    function updateArticle(uint256 _id, string memory _newContentHash) public {\r\n        require(_id > 0 && _id <= articleCount, \"Invalid article ID\");\r\n        Article storage article = articles[_id];\r\n        require(!article.isDeleted, \"Article has been deleted\");\r\n        require(msg.sender == article.author, \"Only the author can update the article\");\r\n\r\n        article.contentHash = _newContentHash;\r\n        article.timestamp = block.timestamp;\r\n        article.version++;\r\n\r\n        emit ArticleUpdated(_id, article.title, _newContentHash, msg.sender, block.timestamp, article.version);\r\n    }\r\n\r\n    function deleteArticle(uint256 _id) public {\r\n        require(_id > 0 && _id <= articleCount, \"Invalid article ID\");\r\n        Article storage article = articles[_id];\r\n        require(!article.isDeleted, \"Article has already been deleted\");\r\n        require(msg.sender == article.author, \"Only the author can delete the article\");\r\n\r\n        article.isDeleted = true;\r\n        bytes32 titleHash = keccak256(bytes(article.title));\r\n        delete titleToId[titleHash];\r\n\r\n        emit ArticleDeleted(_id, msg.sender, block.timestamp);\r\n    }\r\n\r\n    function getArticle(uint256 _id) public view returns (string memory, string memory, address, uint256, uint256, bool) {\r\n        require(_id > 0 && _id <= articleCount, \"Invalid article ID\");\r\n        Article memory article = articles[_id];\r\n        return (article.title, article.contentHash, article.author, article.timestamp, article.version, article.isDeleted);\r\n    }\r\n\r\n    function getArticleByTitle(string memory _title) public view returns (uint256, string memory, string memory, address, uint256, uint256, bool) {\r\n        bytes32 titleHash = keccak256(bytes(_title));\r\n        uint256 id = titleToId[titleHash];\r\n        require(id != 0, \"Article not found\");\r\n        Article memory article = articles[id];\r\n        return (id, article.title, article.contentHash, article.author, article.timestamp, article.version, article.isDeleted);\r\n    }\r\n\r\n    function getAuthorArticles(address _author) public view returns (uint256[] memory) {\r\n        return authorArticles[_author];\r\n    }\r\n\r\n    function getArticlesCount() public view returns (uint256) {\r\n        return articleCount;\r\n    }\r\n}",
  "sourcePath": "C:\\Users\\devan\\OneDrive\\Documents\\DeWik_v3\\contracts\\dewik_contract.sol",
  "compiler": {
    "name": "solc",
    "version": "0.5.1+commit.c8a2cb62.Emscripten.clang"
  },
  "schemaVersion": "3.4.16",
  "updatedAt": "2024-10-05T22:45:29.215Z",
  "networkType": "ethereum",
  "devdoc": {
    "methods": {}
  },
  "userdoc": {
    "methods": {}
  }
}